:10000000BFC00000D8C00000D6C00000D4C00000AF
:10001000D2C00000D0C00000CEC00000CCC00000A4
:10002000CAC00000C8C000001CC3000086C3000096
:10003000C2C00000C0C00000BEC00000BCC00000C4
:10004000BAC00000B8C00000B6C00000B4C00000D4
:10005000B2C00000B0C00000AEC00000ADC00000E3
:10006000AAC00000A8C00000A6C00000A4C00000F4
:10007000A2C00000A0C000009EC000009CC0000004
:100080009AC0000098C0000096C0000094C0000014
:1000900092C0000090C000008EC000008CC0000024
:1000A0008AC0000088C0000086C000000001000077
:1000B000E3001200020000F50022002200001701F8
:1000C0003F00210000070109000300005601040160
:1000D0000309045A0110020309046C011200000113
:1000E000C106001201000200000020C0167C0400BE
:1000F000010102000109022200010100C0320904CD
:1001000000000103010100092111010001223F004B
:100110000705830308000105010906A10175019582
:1001200008050719E029E7150025018102950175E9
:1001300008810395057501050819012905910295A6
:1001400001750391039506750815002568050719C3
:100150000029688100C00403090410034D006600F3
:1001600067004E0061006D006500000012034B0047
:100170006500790062006F00610072006400000099
:1001800011241FBECFEFDAE0DEBFCDBF11E0A0E04B
:10019000B1E0E2E5FAE002C005900D92A43EB1079D
:1001A000D9F711E0A4EEB1E001C01D92A43FB10760
:1001B000E1F739D04CC424CF1F920F920FB60F92A3
:1001C00011248F939F938091E4018F5F8093E401CA
:1001D0001092E501863028F01092E40181E08093CE
:1001E000E5018091E6019091E70101969093E70186
:1001F0008093E601CE9780F01092E7011092E6011D
:100200008091E801882321F01092E8015E9A04C0F1
:1002100081E08093E8015E989F918F910F900FBECF
:100220000F901F9018954F925F926F927F928F92CE
:100230009F92AF92BF92CF92DF92EF92FF920F9375
:100240001F93CF93DF9380E8809361001092610049
:1002500080E48AB914B885B18FEF85B993D1A9D15B
:100260008823E9F380E197E220E931E0F901319751
:10027000F1F70197D9F714BC85E085BD81E0809343
:100280006E00A0E070E0FF2420EC922EC0E2DEE4DD
:1002900094E4B92E81E0C82ED12C01E4802E77247D
:1002A000739412E4612EB8E45B2EF0E54F2EE0E685
:1002B000AE2E02C070E0FF249AB88BB18F638BB969
:1002C0005F98CE010197F1F7E3B05F9ABAB88BB1AE
:1002D0008B6B8BB95A98CE010197F1F783B15A9A7B
:1002E000482F50E0CA0165E0969587956A95E1F739
:1002F0008C259D25B82FB170CA0154E0969587953D
:100300005A95E1F78C259D25682F61708AB88BB1CD
:100310008E6B8BB95898CE010197F1F733B13095B8
:10032000589A91E0E0E0F1E006C0892F832309F0BC
:1003300040C0990F319620812223B9F7D4C0892F6C
:100340008323B9F5990F319620812223C1F7DAC0B2
:10035000892F832371F5990F319620812223C1F7CC
:10036000E0C0892F832329F5990F3196208122231C
:10037000C1F7E6C0892F8323E1F4990F31962081DC
:100380002223C1F7ECC0892F832399F4990F31966A
:1003900020812223C1F7AA2309F48CCFF89410926C
:1003A000E7011092E6017092E8015E987894A0E06F
:1003B00081CFF8941092E7011092E6011092E801C3
:1003C0005E9A78942A3011F408E26EC0662309F42C
:1003D0004DC02F34C9F1203598F4253461F126340D
:1003E00040F4233409F4CAC0243408F52134F1F56B
:1003F00020C0273429F1273400F12934B9F522C06F
:10040000243551F1253538F4223511F1233510F515
:10041000203561F51BC0273519F1283518F425352D
:1004200029F51CC02835F1F02A3501F51DC00FE46F
:10043000A6C001E303C002E5A2C00FE212E0A0C023
:1004400000E3FCCF08E3FACF04E399C004E3F6CF5E
:100450000FE295C000E593C000E391C00DE2EECF3E
:1004600005E3ECCF01E58BC001E389C02032D8F071
:100470002B35C8F42F3229F4BB2319F010E00DE21C
:1004800016C0822F90E08097FC01EE0FFF1FE80F4F
:10049000F91FEF5CFE4F01811281E4FC06C021349C
:1004A00020F0126002C000E010E0B111126046FFBF
:1004B000116061111460002311F4A0E00BC0A017BB
:1004C00029F4711719F48AE0F81631F4802F612F9E
:1004D000BBD0A02F712FF0CE8091E501882309F4C5
:1004E000EBCEF394E9CE6AB88BB18D6B8BB959988A
:1004F000CE010197F1F733B13095599A91E0E9E0D7
:10050000F1E022CFBAB88BB18B6B8BB95A98CE0180
:100510000197F1F733B130955A9A91E0E2E1F1E0B9
:100520001CCF5AB88BB1876B8BB95B98CE01019702
:10053000F1F733B130955B9A91E0E6E1F1E016CF47
:100540004AB88BB18F6A8BB95C98CE010197F1F7ED
:1005500033B130955C9A91E0EFE1F1E010CFAAB8A9
:100560008BB18F698BB95D98CE010197F1F733B1EB
:1005700030955D9A91E0E8E2F1E00ACF05E310E002
:1005800060E093CF81E08093D70080EA8093D80029
:1005900082E189BD09B400FEFDCF80E98093D800D7
:1005A0001092E0001092F1018CE08093E2007894C8
:1005B00008958091F10108958091F101882309F453
:1005C00041C02FB7F89483E08093E9009091E40054
:1005D0009E5C33E08091E80085FD0EC02FBF8091C6
:1005E000F101882379F18091E400891759F12FB73F
:1005F000F8943093E900EECF8091E9018093F10007
:100600001092F1008091EA018093F1008091EB015A
:100610008093F1008091EC018093F1008091ED01D5
:100620008093F1008091EE018093F1008091EF01C1
:100630008093F1008AE38093E8001092F2012FBFCB
:1006400080E008958FEF08956093E9018093EA01B7
:10065000B3DF882329F41092E9011092EA01ACCFAC
:1006600008951F920F920FB60F9211242F938F931C
:100670009F938091E1001092E100982F83FF0FC0BB
:100680001092E90081E08093EB001092EC0082E28E
:100690008093ED0088E08093F0001092F10192FFCA
:1006A00044C08091F101882309F43FC02091E20108
:1006B0002223D9F18091F3018F5F8093F30190E0C1
:1006C00083709070892B89F583E08093E900809195
:1006D000E80085FF2AC08091F2018F5F8093F201CC
:1006E000821719F51092F2018091E9018093F100CF
:1006F0001092F1008091EA018093F1008091EB016A
:100700008093F1008091EC018093F1008091ED01E4
:100710008093F1008091EE018093F1008091EF01D0
:100720008093F1008AE38093E8009F918F912F914D
:100730000F900FBE0F901F9018951F920F920FB63B
:100740000F9211240F931F932F933F934F935F9317
:100750006F937F938F939F93AF93BF93EF93FF9389
:100760001092E9008091E80083FF5BC14091F100A5
:100770003091F1008091F100682F70E02091F1003C
:10078000922F80E0682B792B8091F100A82FB0E0A8
:100790002091F100922F80E0A82BB92B1091F1004D
:1007A0000091F10082EF8093E800363009F05AC0E2
:1007B00023EB30E0A90145505040F901379785916E
:1007C00094918617970701F5FA01859194918A17FC
:1007D0009B07D1F49A012E5F3F4FF9016591749107
:1007E0002E5F3F4FF9014491212F30E0902F80E0A0
:1007F000282B392B2F3F310519F010F02FEF30E067
:10080000241758F4422F09C0295F3F4F495F5F4FBB
:10081000F0E0243E3F0789F604C15EEF8091E800D6
:10082000282F30E0C90185709070892BB9F322FD23
:10083000FBC0342F413208F030E2232FCB0106C039
:10084000FC010196E491E093F10021502223C1F7CD
:10085000630F711D431B5093E8004423F9F63032B7
:10086000E9F2E2C0353061F48EEF8093E8008091C8
:10087000E80080FFFCCF862F80688093E300D4C01F
:10088000393031F5442309F071C06093F1018EEFE6
:100890008093E8008DED90E021E02093E900FC01D9
:1008A0000196E491E093EB00EE2369F0AC014F5F19
:1008B0005F4FFC0184918093EC00CA010196FA011C
:1008C00034913093ED002F5F253039F78EE149C028
:1008D000383051F4403809F049C08091E80080FF79
:1008E000FCCF8091F1017BC03323D1F48091E800EB
:1008F00080FFFCCF423811F080E00DC0A093E900EA
:100900008091EB0090E025E0969587952A95E1F798
:1009100081701092E9008093F1001092F1007DC087
:10092000313011F0333011F5423001F561157105A8
:10093000E9F42A2F2F77822F81508430B8F48EEF7C
:100940008093E8002093E900333009F46AC089E11C
:100950008093EB0081E090E002C0880F991F2A95F8
:10096000E2F78093EA001092EA005EC0AB2B09F038
:1009700058C0413AB9F5313009F58091E80080FF5F
:10098000FCCF8091E9018093F1001092F1008091F9
:10099000EA018093F1008091EB018093F100809156
:1009A000EC018093F1008091ED018093F100809142
:1009B000EE018093F1008091EF0111C0323039F4E3
:1009C0008091E80080FFFCCF8091E20108C03330C5
:1009D00041F58091E80080FFFCCF8091E301809396
:1009E000F1001BC04132E9F4393061F48091E80034
:1009F00082FFFCCF8091F1008093F0018BEF809318
:100A0000E8000BC03A3029F47093E2011092F20131
:100A100004C03B3031F46093E3018EEF8093E80033
:100A200003C081E28093EB00FF91EF91BF91AF9102
:100A30009F918F917F916F915F914F913F912F91F6
:100A40001F910F910F900FBE0F901F901895F89463
:020A5000FFCFD6
:100A52004E48593635475442002F3B5030314151B0
:100A62005A003D200A002E4C4F3932535758002C61
:100A72004B493833444543004D4A55373446525664
:100A820000202C00211E02223602232002242102F1
:100A92002522022624022731002826022927022A9B
:100AA20025022B2E022C36002D2D002E37002F383A
:100AB20000302700311E00321F0033200034210095
:100AC2003522003623003724003825003926003A23
:100AD20033023B33003C36023D2E003E37023F38A4
:100AE20002401F0241040042050043060044070081
:100AF200450800460900470A00480B00490C004A15
:100B02000D004B0E004C0F004D10004E11004F1205
:100B120000501300511400521500531600541700D0
:100B2200551800561900571A00581B00591C005A34
:040B32001D007D0124
:00000001FF
