:10000000FEC0000017C1000015C1000013C10000B0
:1000100011C100000FC100000DC100000BC10000A4
:1000200009C1000007C10000CCC300004CC400009F
:1000300001C10000FFC00000FDC00000FBC00000C7
:10004000F9C00000F7C00000F5C00000F3C00000D8
:10005000F1C00000EFC00000EDC00000ECC00000E7
:10006000E9C00000E7C00000E5C00000E3C00000F8
:10007000E1C00000DFC00000DDC00000DBC0000008
:10008000D9C00000D7C00000D5C00000D3C0000018
:10009000D1C00000CFC00000CDC00000CBC0000028
:1000A000C9C00000C7C00000C5C000004E6F205589
:1000B0005342206B6579210A000A002020537065A5
:1000C00065643A20307800202044656C61793A20DC
:1000D00030780020205573624B65793A20307800E3
:1000E0005573624D6F643A20307800000100003291
:1000F00001120002000044013B002200007F013F8A
:100100000021000056010900220100BE0115002156
:1001100001006F010900030000D301040103090479
:10012000D7011002030904E90112000001C1060110
:10013000C1261201000200000020C0167D0400014B
:100140000102000109023B00020100C03209040063
:10015000000103010100092111010001223F0007F4
:1001600005830308000109040100010300000009E0
:10017000211101000122150007058403200001055B
:10018000010906A10175019508050719E029E71580
:10019000002501810295017508810395057501050A
:1001A00008190129059102950175039103950675BA
:1001B00008150025680507190029688100C0063167
:1001C000FF0974A1537508150026FF0095200975D5
:1001D0008102C00403090410034D00660067004E4D
:1001E0000061006D006500000012034B006500799E
:1001F0000062006F006100720064000000001124C2
:100200001FBECFEFDAE0DEBFCDBF11E0A0E0B1E06E
:10021000E0E8FCE002C005900D92A43EB107D9F7DA
:1002200011E0A4EEB1E001C01D92A63FB107E1F7D5
:1002300039D024C5E5CE1F920F920FB60F9211242C
:100240008F939F938091E4018F5F8093E4011092DC
:10025000E501863028F01092E40181E08093E50109
:100260008091E6019091E70101969093E7018093D8
:10027000E601CE9780F01092E7011092E60180919E
:10028000E801882321F01092E8015E9A04C081E021
:100290008093E8015E989F918F910F900FBE0F9011
:1002A0001F9018953F924F925F926F927F928F921C
:1002B0009F92AF92BF92CF92DF92EF92FF920F93F5
:1002C0001F93CF93DF9380E88093610010926100C9
:1002D00080E48AB914B885B18FEF85B9BDD1D3D187
:1002E0008823E9F380E197E220E931E0F9013197D1
:1002F000F1F70197D9F714BC85E085BD81E08093C3
:100300006E0050E040E0FF24EE2420EC922EC0E28C
:10031000DEE494E4C92E81E0A82EB12C01E4802E05
:100320007724739412E4612EB8E45B2EA0E54A2E84
:10033000F0E63F2E03C040E0FF24EE249AB88BB1D4
:100340008F638BB95F98CE010197F1F7D3B05F9AB5
:10035000CAB88BB18B6B8BB95A98CE010197F1F764
:1003600083B15A9A682F70E0CB01E5E096958795A6
:10037000EA95E1F78A259B25B82FB170CB0174E08F
:10038000969587957A95E1F78A259B25A82FA170E8
:100390008AB88BB18E6B8BB95898CE010197F1F763
:1003A00033B13095589A91E0E0E0F1E006C0892F32
:1003B000832309F040C0990F319620812223B9F799
:1003C000FCC0892F8323B9F5990F31962081222310
:1003D000C1F702C1892F832371F5990F31962081CE
:1003E0002223C1F708C1892F832329F5990F31965C
:1003F00020812223C1F70EC1892F8323E1F4990FB5
:10040000319620812223C1F714C1892F832399F4C7
:10041000990F319620812223C1F7552309F48BCF00
:10042000F8941092E7011092E6017092E8015E984C
:10043000789450E080CFF8941092E7011092E60192
:100440001092E8015E9A78942A3011F408E26EC0A6
:10045000AA2309F44DC02F34C9F1203598F425346E
:1004600061F1263440F4233409F4F2C0243408F551
:100470002134F1F520C0273429F1273400F1293443
:10048000B9F522C0243551F1253538F4223511F162
:10049000233510F5203561F51BC0273519F12835B6
:1004A00018F4253529F51CC02835F1F02A3501F559
:1004B0001DC00FE4CEC001E303C002E5CAC00FE2D5
:1004C00012E0C8C000E3FCCF08E3FACF04E3C1C0E8
:1004D00004E3F6CF0FE2BDC000E5BBC000E3B9C046
:1004E0000DE2EECF05E3ECCF01E5B3C001E3B1C00F
:1004F0002032D8F02B35C8F42F3229F4BB2319F061
:1005000010E00DE216C0822F90E08097FC01EE0F04
:10051000FF1FE80FF91FEF5CFE4F01811281D4FC31
:1005200006C0213420F0126002C000E010E0B111DA
:10053000126066FF1160A1111460002309F437C036
:10054000501741F4411731F48AE0F81619F081E0B0
:10055000E81601F580EE90E07DD3812F71D383ED15
:1005600090E078D3802F6CD387EC90E073D38F2DFD
:1005700067D38BEB90E06ED38E2D62D389EB90E046
:1005800069D3802F612FCAD08AE0F81611F48BE06E
:10059000F82EEE248091E501882331F089E08F1553
:1005A00010F4E39401C0F394502F412FC7CE8CEA8E
:1005B00090E050D3412F50E0C1CE6AB88BB18D6B23
:1005C0008BB95998CE010197F1F733B13095599A0B
:1005D00091E0E9E0F1E0FACECAB88BB18B6B8BB950
:1005E0005A98CE010197F1F733B130955A9A91E0BC
:1005F000E2E1F1E0F4CE5AB88BB1876B8BB95B982E
:10060000CE010197F1F733B130955B9A91E0E6E1C5
:10061000F1E0EECE4AB88BB18F6A8BB95C98CE010F
:100620000197F1F733B130955C9A91E0EFE1F1E099
:10063000E8CE3AB88BB18F698BB95D98CE0101973E
:10064000F1F733B130955D9A91E0E8E2F1E0E2CE66
:1006500005E310E0A0E06BCF81E08093D70080EA53
:100660008093D80082E189BD09B400FEFDCF80E906
:100670008093D8001092E0001092F1018CE08093FA
:10068000E200789408958091F10108958091F1013C
:10069000882309F441C02FB7F89483E08093E900E0
:1006A0009091E4009E5C33E08091E80085FD0EC0EF
:1006B0002FBF8091F101882379F18091E40089179F
:1006C00059F12FB7F8943093E900EECF8091E9010A
:1006D0008093F1001092F1008091EA018093F10083
:1006E0008091EB018093F1008091EC018093F10007
:1006F0008091ED018093F1008091EE018093F100F3
:100700008091EF018093F1008AE38093E8001092DA
:10071000F2012FBF80E008958FEF08956093E90103
:100720008093EA01B3DF882329F41092E901109243
:10073000EA01ACCF0895482F8091F101882309F494
:100740003EC02FB7F89484E08093E9008091F501D2
:10075000882341F08091E80085FD02C02FBF12C0C0
:100760001092F5019091E4009C5F34E08091E800E4
:1007700085FD13C02FBF8091E400891729F481E023
:100780008093F5018FEF08958091F1018823B9F0EE
:100790002FB7F8943093E900E9CF4093F1008091AE
:1007A000E80085FD06C08AE38093E8001092F3011B
:1007B00003C082E08093F3012FBF80E008958FEFA4
:1007C00008951F920F920FB60F9211242F938F93BB
:1007D0009F938091E1001092E100982F83FF0FC05A
:1007E0001092E90081E08093EB001092EC0082E22D
:1007F0008093ED0088E08093F0001092F10192FF69
:100800005AC08091F101882309F455C08091F30109
:10081000882391F081508093F301882369F484E068
:100820008093E90002C01092F1008091E80085FDFC
:10083000FACF8AE38093E8002091E2012223D9F1E4
:100840008091F4018F5F8093F40190E08370907049
:10085000892B89F583E08093E9008091E80085FF8A
:100860002AC08091F2018F5F8093F201821719F5FF
:100870001092F2018091E9018093F1001092F10051
:100880008091EA018093F1008091EB018093F10067
:100890008091EC018093F1008091ED018093F10053
:1008A0008091EE018093F1008091EF018093F1003F
:1008B0008AE38093E8009F918F912F910F900FBE54
:1008C0000F901F9018951F920F920FB60F92112440
:1008D0002F933F934F935F936F937F938F939F9348
:1008E000AF93BF93CF93DF93EF93FF931092E90001
:1008F0008091E80083FF86C14091F1003091F100C2
:100900008091F100A82FB0E02091F100922F80E0BB
:10091000A82BB92B8091F100682F70E02091F10095
:10092000922F80E0682B792B8091F100C82FD0E0C6
:100930002091F100922F80E0C82BD92B82EF809379
:10094000E800363009F056C022EF30E0A9014550EA
:100950005040F9013797859194918A179B07E1F4EC
:10096000FA018591949186179707B1F49A012E5F49
:100970003F4FF901659174912E5F3F4FF90124912A
:10098000CE01CF3FD10519F010F08FEF90E0422F4C
:10099000821758F4482F09C0295F3F4F495F5F4FC6
:1009A000F1E021333F07A9F62DC15EEF8091E80009
:1009B000282F30E0C90185709070892BB9F322FD92
:1009C00024C1342F413208F030E2232FCB0106C07E
:1009D000FC010196E491E093F10021502223C1F73C
:1009E000630F711D431B5093E8004423F9F6303226
:1009F000E9F20BC1353061F48EEF8093E80080910D
:100A0000E80080FFFCCF8A2F80688093E300FDC060
:100A1000393031F5442309F070C0A093F1018EEF15
:100A20008093E8008AE291E021E02093E900FC0154
:100A30000196E491E093EB00EE2369F0AC014F5F87
:100A40005F4FFC0184918093EC00CA010196FA018A
:100A500034913093ED002F5F253039F78EE148C097
:100A6000383051F4403809F048C08091E80080FFE8
:100A7000FCCF8091F1017CC03323D1F48091E80058
:100A800080FFFCCF423811F080E00DC06093E90098
:100A90008091EB0090E025E0969587952A95E1F707
:100AA00081701092E9008093F1001092F1007FC0F4
:100AB000313011F0333009F54230F9F41097E9F490
:100AC000262F2F77822F81508430B8F48EEF8093B9
:100AD000E8002093E900333009F494C089E1809361
:100AE000EB0081E090E002C0880F991F2A95E2F7A1
:100AF0008093EA001092EA0088C06115710509F040
:100B00005AC0413AC1F5313009F58091E80080FFC3
:100B1000FCCF8091E9018093F1001092F100809167
:100B2000EA018093F1008091EB018093F1008091C4
:100B3000EC018093F1008091ED018093F1008091B0
:100B4000EE018093F1008091EF0112C0323039F450
:100B50008091E80080FFFCCF8091E20109C0333032
:100B600009F050C08091E80080FFFCCF8091E30144
:100B70008093F1001CC0413209F044C0393061F467
:100B80008091E80082FFFCCF8091F1008093F0011A
:100B90008BEF8093E8000BC03A3029F4B093E20168
:100BA0001092F20104C03B3069F5A093E3018EEF8F
:100BB0008093E8002AC06130710521F5313011F5CC
:100BC000413A01F54C2F5EEF8091E800282F30E08C
:100BD000C90185709070892BB9F322FD16C0942F3E
:100BE000413208F090E2892F03C01092F100815049
:100BF0008823D9F7491B5093E800442329F7903202
:100C000019F303C081E28093EB00FF91EF91DF9134
:100C1000CF91BF91AF919F918F917F916F915F9194
:100C20004F913F912F910F900FBE0F901F901895ED
:100C3000982F8A3010F087E301C080E3890F7BCDC5
:100C40001F93182F82958F70F3DF812F8F70F0DF45
:100C50001F9108951F93CF93DF93EC01FE0121961E
:100C60001491112339F01A3011F48DE064DD812FD5
:100C700062DDF4CFDF91CF911F910895F894FFCFFB
:100C80004E48593635475442002F3B503031415180
:100C90005A003D200A002E4C4F3932535758002C31
:100CA0004B493833444543004D4A55373446525634
:100CB00000202C00211E02223602232002242102C1
:100CC0002522022624022731002826022927022A6B
:100CD00025022B2E022C36002D2D002E37002F380A
:100CE00000302700311E00321F0033200034210065
:100CF0003522003623003724003825003926003AF3
:100D000033023B33003C36023D2E003E37023F3873
:100D100002401F0241040042050043060044070050
:100D2000450800460900470A00480B00490C004AE4
:100D30000D004B0E004C0F004D10004E11004F12D5
:100D400000501300511400521500531600541700A0
:100D5000551800561900571A00581B00591C005A04
:040D60001D007D01F4
:00000001FF
